:020000040800F2
:10000000000400202D1C00087F1C00087F1C000835
:100010007F1C00087F1C00087F1C000800000000F7
:100020000000000000000000000000007F1C00082D
:100030007F1C0008000000007F1C000861400008D1
:100040007F1C00087F1C00087F1C00087F1C000824
:100050007F1C00087F1C00087F1C00087F1C000814
:100060007F1C00087F1C00087F1C00087F1C000804
:100070007F1C00087F1C00087F1C00087F1C0008F4
:100080007F1C00087F1C00087F1C00087F1C0008E4
:100090007F1C00087F1C00087F1C00087F1C0008D4
:1000A0007F1C00087F1C00087F1C00087F1C0008C4
:1000B0007F1C00087F1C00087F1C00087F1C0008B4
:1000C0007F1C00087F1C00087F1C00087F1C0008A4
:1000D0007F1C0008053E00087F1C00087F1C0008EC
:1000E0007F1C00087F1C00087F1C00087F1C000884
:1000F0007F1C00087F1C00087F1C00087F1C000874
:100100007F1C00087F1C00087F1C00087F1C000863
:100110007F1C00087F1C00087F1C00087F1C000853
:100120007F1C00087F1C00087F1C00087F1C000843
:1001300000000000000000000000000000000000BF
:1001400000000000000000000000000000000000AF
:10015000000000000000000000000000000000009F
:10016000000000000000000000000000000000008F
:10017000000000000000000000000000000000007F
:10018000000000000000000000000000000000006F
:10019000000000000000000000000000000000005F
:1001A000000000000000000000000000000000004F
:1001B000000000000000000000000000000000003F
:1001C000000000000000000000000000000000002F
:1001D000000000000000000000000000000000001F
:0401E0005FF8E0F1F3
:1001E40081F0004102E000BF83F0004330B54FEAE4
:1001F40041044FEA430594EA050F08BF90EA020F51
:100204001FBF54EA000C55EA020C7FEA645C7FEAE3
:10021400655C00F0E2804FEA5454D4EB5555B8BF06
:100224006D420CDD2C4480EA020281EA030382EA77
:10023400000083EA010180EA020281EA0303362D09
:1002440088BF30BD11F0004F4FEA01314FF4801CDC
:100254004CEA113102D0404261EB410113F0004FEE
:100264004FEA03334CEA133302D0524263EB4303A5
:1002740094EA050F00F0A780A4F10104D5F1200E43
:100284000DDB02FA0EFC22FA05F2801841F100019E
:1002940003FA0EF2801843FA05F359410EE0A5F172
:1002A40020050EF1200E012A03FA0EFC28BF4CF0A3
:1002B400020C43FA05F3C01851EBE37101F0004559
:1002C40007D54FF0000EDCF1000C7EEB00006EEB66
:1002D4000101B1F5801F1BD3B1F5001F0CD34908F0
:1002E4005FEA30004FEA3C0C04F101044FEA445247
:1002F40012F5800F80F09A80BCF1004F08BF5FEACE
:10030400500C50F1000041EB045141EA050130BDAD
:100314005FEA4C0C404141EB010111F4801FA4F150
:100324000104E9D191F0000F04BF01460020B1FAA5
:1003340081F308BF2033A3F10B03B3F120020CDADD
:100344000C3208DD02F1140CC2F10C0201FA0CF0BB
:1003540021FA02F10CE002F11402D8BFC2F1200C20
:1003640001FA02F120FA0CFCDCBF41EA0C019040D6
:10037400E41AA2BF01EB0451294330BD6FEA04041F
:100384001F3C1CDA0C340EDC04F11404C4F120020A
:1003940020FA04F001FA02F340EA030021FA04F31C
:1003A40045EA030130BDC4F10C04C4F1200220FA73
:1003B40002F001FA04F340EA0300294630BD21FAB1
:1003C40004F0294630BD94F0000F83F4801306BF77
:1003D40081F480110134013D4EE77FEA645C18BF6B
:1003E4007FEA655C29D094EA050F08BF90EA020F02
:1003F40005D054EA000C04BF1946104630BD91EAFA
:10040400030F1EBF0021002030BD5FEA545C05D1FC
:100414004000494128BF41F0004130BD14F580043B
:100424003CBF01F5801130BD01F0004545F0FE41AF
:1004340041F470014FF0000030BD7FEA645C1ABFE4
:10044400194610467FEA655C1CBF0B46024650EA1B
:10045400013406BF52EA033591EA030F41F4002147
:1004640030BD00BF90F0000F04BF0021704730B5CD
:100474004FF4806404F132044FF000054FF00001A2
:1004840050E700BF90F0000F04BF0021704730B563
:100494004FF4806404F1320410F0004548BF404238
:1004A4004FF000013EE700BF42004FEAE2014FEA8D
:1004B40031014FEA02701FBF12F07F4393F07F4F68
:1004C40081F06051704792F0000F14BF93F07F4F9A
:1004D400704730B54FF4607401F0004521F00041DD
:1004E40020E700BF50EA010208BF704730B54FF063
:1004F40000050AE050EA010208BF704730B511F068
:10050400004502D5404261EB41014FF4806404F19F
:1005140032045FEA915C3FF4DCAE4FF003025FEA21
:10052400DC0C18BF03325FEADC0C18BF033202EBA9
:10053400DC02C2F1200300FA03FC20FA02F001FA03
:1005440003FE40EA0E0021FA02F11444C1E600BFA2
:100554004FEA4102B2F1E04324BFB3F5001CDCF1E1
:10056400FE5C0DD901F0004C4FEAC0024CEA507019
:10057400B2F1004F40EB830008BF20F00100704748
:1005840011F0804F21D113F13872BCBF01F000404B
:10059400704741F480114FEA5252C2F11802C2F17D
:1005A400200C10FA0CF320FA02F018BF40F00100FE
:1005B4004FEAC1234FEAD32303FA0CFC40EA0C00B0
:1005C40023FA02F34FEA4303CCE77FEA625307D1ED
:1005D40050EA01331EBF4FF0FE4040F44000704724
:1005E40001F0004040F0FE4040F40000704700BFBE
:1005F40080F0004002E000BF81F0004142001FBFD4
:100604005FEA410392EA030F7FEA226C7FEA236CDC
:100614006AD04FEA1262D2EB1363C1BFD2184140D1
:1006240048404140B8BF5B42192B88BF704710F067
:10063400004F40F4000020F07F4018BF404211F00A
:10064400004F41F4000121F07F4118BF494292EA72
:10065400030F3FD0A2F1010241FA03FC10EB0C009E
:10066400C3F1200301FA03F100F0004302D549422B
:1006740060EB4000B0F5000F13D3B0F1807F06D3D8
:1006840040084FEA310102F10102FE2A51D2B1F1D0
:10069400004F40EBC25008BF20F0010040EA0300C5
:1006A4007047490040EB000010F4000FA2F1010272
:1006B400EDD1B0FA80FCACF1080CB2EB0C0200FAFC
:1006C4000CF0AABF00EBC25052421843BCBFD0404A
:1006D4001843704792F0000F81F4000106BF80F4C4
:1006E40000000132013BB5E74FEA41037FEA226C87
:1006F40018BF7FEA236C21D092EA030F04D092F052
:10070400000F08BF0846704790EA010F1CBF002085
:10071400704712F07F4F04D1400028BF40F00040E2
:10072400704712F100723CBF00F50000704700F002
:10073400004343F0FE4040F4000070477FEA226229
:1007440016BF08467FEA23630146420206BF5FEAFA
:10075400412390EA010F40F4800070474FF00003FA
:1007640004E000BF10F0004348BF40425FEA000CC1
:1007740008BF704743F0964301464FF000001CE069
:1007840050EA010208BF70474FF000030AE000BFBF
:1007940050EA010208BF704711F0004302D54042FD
:1007A40061EB41015FEA010C02BF8446014600206F
:1007B40043F0B64308BFA3F18053A3F50003BCFA8A
:1007C4008CF2083AA3EBC25310DB01FA02FC634437
:1007D40000FA02FCC2F12002BCF1004F20FA02F23E
:1007E40043EB020008BF20F00100704702F1200231
:1007F40001FA02FCC2F1200250EA4C0021FA02F292
:1008040043EB020008BF20EADC7070474FF0FF0C96
:100814001CEAD0521EBF1CEAD15392EA0C0F93EA91
:100824000C0F6FD01A4480EA010C400218BF5FEA33
:1008340041211ED04FF0006343EA501043EA5111A6
:10084400A0FB01310CF00040B1F5000F3EBF4900A0
:1008540041EAD3715B0040EA010062F17F02FD2AA4
:100864001DD8B3F1004F40EBC25008BF20F0010087
:10087400704790F0000F0CF0004C08BF49024CEA9E
:10088400502040EA51207F3AC2BFD2F1FF0340EA30
:10089400C250704740F400004FF00003013A5DDCA1
:1008A40012F1190FDCBF00F000407047C2F10002E2
:1008B400410021FA02F1C2F1200200FA02FC5FEACF
:1008C400310040F1000053EA4C0308BF20EADC7019
:1008D400704792F0000F00F0004C02BF400010F48B
:1008E400000F013AF9D040EA0C0093F0000F01F038
:1008F400004C02BF490011F4000F013BF9D041EA5A
:100904000C018FE70CEAD15392EA0C0F18BF93EA5B
:100914000C0F0AD030F0004C18BF31F0004CD8D185
:1009240080EA010000F00040704790F0000F17BF0C
:1009340090F0004F084691F0000F91F0004F14D052
:1009440092EA0C0F01D142020FD193EA0C0F03D1AA
:100954004B0218BF084608D180EA010000F00040AD
:1009640040F0FE4040F40000704740F0FE4040F488
:10097400400070474FF0FF0C1CEAD0521EBF1CEA27
:10098400D15392EA0C0F93EA0C0F69D0A2EB030245
:1009940080EA010C49024FEA402037D04FF08053DF
:1009A40043EA111143EA10130CF000408B4238BFA4
:1009B4005B0042F17D024FF4000C8B4224BF5B1AB2
:1009C40040EA0C00B3EB510F24BFA3EB510340EA00
:1009D4005C00B3EB910F24BFA3EB910340EA9C00AE
:1009E400B3EBD10F24BFA3EBD10340EADC001B011E
:1009F40018BF5FEA1C1CE0D1FD2A3FF650AF8B42C2
:100A040040EBC25008BF20F0010070470CF0004CCE
:100A14004CEA50207F32C2BFD2F1FF0340EAC250F9
:100A2400704740F400004FF00003013A37E792F0BA
:100A3400000F00F0004C02BF400010F4000F013A18
:100A4400F9D040EA0C0093F0000F01F0004C02BF13
:100A5400490011F4000F013BF9D041EA0C0195E77C
:100A64000CEAD15392EA0C0F08D142027FF47DAF15
:100A740093EA0C0F7FF470AF084676E793EA0C0F05
:100A840004D14B023FF44CAF08466EE730F0004C03
:100A940018BF31F0004CCAD130F000427FF45CAF93
:100AA40031F000437FF43CAF5FE700BF4FF0FF3C01
:100AB40006E000BF4FF0010C02E000BF4FF0010C54
:100AC4004DF804CD4FEA40024FEA41037FEA226C1D
:100AD40018BF7FEA236C11D001B052EA530C18BF3F
:100AE40090EA010F58BFB2EB030088BFC81738BFA4
:100AF4006FEAE17018BF40F0010070477FEA226C92
:100B040002D15FEA402C05D17FEA236CE4D15FEA8D
:100B1400412CE1D05DF8040B704700BF84460846C1
:100B24006146FFE70FB5FFF7C9FF002848BF10F182
:100B3400000F0FBD4DF808EDFFF7F4FF0CBF0120C7
:100B440000205DF808FB00BF4DF808EDFFF7EAFF51
:100B540034BF012000205DF808FB00BF4DF808ED0C
:100B6400FFF7E0FF94BF012000205DF808FB00BF01
:100B74004DF808EDFFF7D2FF94BF012000205DF887
:100B840008FB00BF4DF808EDFFF7C8FF34BF012094
:100B940000205DF808FB00BF4FEA4002B2F1FE4FAF
:100BA4000FD34FF09E03B3EB12620DD94FEA00232B
:100BB40043F0004310F0004F23FA02F018BF404204
:100BC40070474FF00000704712F1610F01D14202EB
:100BD40005D110F0004008BF6FF0004070474FF09F
:100BE4000000704742000ED2B2F1FE4F0BD34FF01B
:100BF4009E03B3EB126209D44FEA002343F000438F
:100C040023FA02F070474FF00000704712F1610FB1
:100C140001D1420202D14FF0FF3070474FF0000083
:100C2400704700BF7BB972B90029BEBF00204FF0E6
:100C3400004106E008BF00281CBF6FF000414FF0E0
:100C4400FF3000F03BB882B0EC462DE9005000F0D4
:100C540005F8DDF804E002B00CBC70472DE9F04162
:100C6400069C904606460F461D4600F029F808FBF0
:100C740001FCA8FB002300FB05C5B21A2B4467EB5B
:100C840003038646C4E90023BDE8F0812DE9F84357
:100C9400089E1746804689461D4600F067F900FB0A
:100CA40005F3A0FB074507FB0137B8EB04043D44FB
:100CB40069EB0505C6E90045BDE8F883704700BF48
:100CC40000292DE9F043C0F2A8800026002BC0F2D1
:100CD4009E8081468E4690469C46174604460D46A5
:100CE400002B3DD18A4259D9B2FA82F33BB1C3F108
:100CF40020029D4020FA02F29F4015439C40390C8B
:100D0400B5FBF1F01FFA87FE01FB10550EFB00F353
:100D1400220C42EA0545AB4209D9ED1900F1FF3234
:100D240080F00B81AB4240F2088102383D44ED1A59
:100D3400B5FBF1F301FB13550EFB03FEA4B244EA29
:100D44000545AE4508D9ED1903F1FF3280F0F7806F
:100D5400AE4540F2F480023B43EA0043002203E044
:100D64008B420FD900221346341C18BF0124604261
:100D74004FF0000565EB45015840514000196941A9
:100D8400BDE8F083B3FA83F2002A40F089808B42F5
:100D940002D3804500F2E2800123E5E712B9012382
:100DA400B3FBF2F7B7FA87F8B8F1000F3BD1ED1BAC
:100DB4004FEA174C1FFA87FE0122B5FBFCF00CFB2F
:100DC40010550EFB00F3210C41EA0545AB4207D94F
:100DD400ED1900F1FF3102D2AB4200F2C3800846A4
:100DE400ED1AB5FBFCF30CFB13550EFB03FEA4B28A
:100DF40044EA0545AE4507D9ED1903F1FF3102D2A6
:100E0400AE4500F2AD800B4643EA0043ACE75242E4
:100E14006FEA060663EB43035BE7404261EB410183
:100E24004FF0FF3652E707FA08F7C8F1200225FA17
:100E340002F34FEA174CB3FBFCF11FFA87FE0CFBDD
:100E4400113324FA02F205FA08F50EFB01F92A43DC
:100E5400100C40EA0343994504FA08F407D9DB1956
:100E640001F1FF3078D2994576D902393B44C9EB78
:100E74000303B3FBFCF00CFB10330EFB00F592B242
:100E840042EA03439D4207D9DB1900F1FF325FD2E6
:100E94009D425DD902383B445D1B40EA01428CE728
:100EA400C2F1200328FA03F10CFA02FC41EA0C0C0B
:100EB4004FEA1C402EFA03F1B1FBF0F51FFA8CF750
:100EC40000FB151129FA03F30EFA02FE07FB05F9DC
:100ED40043EA0E0E4FEA1E4343EA0141894508FAEC
:100EE40002F808D911EB0C0105F1FF3332D2894520
:100EF40030D9023D6144C9EB0101B1FBF0F300FBC1
:100F0400131107FB03F71FFA8EFE4EEA014E7745D5
:100F140008D91EEB0C0E03F1FF3117D2774515D912
:100F2400023BE64443EA0543A3FB0889C7EB0E0EE4
:100F3400CE4509D305D0002216E71046F7E613463E
:100F44000AE794404445F6D2013BF4E70B46E9E74F
:100F54001046A1E71D46CEE7014688E7134603E79E
:100F6400023B51E702383D443AE700BF2DE9F04324
:100F7400002B44D18A42154604464FD9B2FA82F76F
:100F84000E464FB1C7F12003B94020FA03F602FA26
:100F940007F50E4300FA07F42F0CB6FBF7F01FFA1F
:100FA40085FE07FB10620EFB00F1260C46EA0243A5
:100FB400994209D95B1900F1FF3280F0EE80994221
:100FC40040F2EB8002382B44591AB1FBF7F307FBCC
:100FD40013110EFB03FEA4B244EA01418E4508D965
:100FE400491903F1FF3280F0DA808E4540F2D78050
:100FF400023B43EA004000263146BDE8F0838B42C1
:1010040047D8B3FA83F6002E48D18B4202D38242EA
:1010140000F2CF8001203146BDE8F08312B90125EA
:10102400B5FBF2F5B5FA85FCBCF1000F78D1491B8C
:101034002F0C1FFA85FE0126B1FBF7F007FB1011F8
:101044000EFB00F2230C43EA01418A4207D94919F5
:1010540000F1FF3302D28A4200F2BC801846891A9A
:10106400B1FBF7F307FB13110EFB03FEA4B244EA32
:101074000142964508D9521903F1FF3180F091805D
:10108400964540F28E80023B43EA00403146BDE87B
:10109400F083002630463146BDE8F083C6F12004D3
:1010A40022FA04F5B3402B4321FA04F74FEA13481C
:1010B400B7FBF8FC1FFA83F908FB1C7720FA04FE3F
:1010C40001FA06F509FB0CF44EEA05054FEA154E44
:1010D4004EEA0747BC4202FA06F204D9FF180CF1A3
:1010E400FF3168D38C463F1BB7FBF8F408FB147739
:1010F40009FB04F9ADB245EA0741894504D9C91889
:1011040004F1FF355DD32C4644EA0C44A4FB0223CE
:10111400C9EB0101994249D345D0204600266BE72B
:10112400CCF1200405FA0CF521FA04F32A0CB3FBE4
:10113400F2F61FFA85FE02FB163820FA04F701FACC
:101144000CF10EFB06F90F433C0C44EA08439945A5
:1011540000FA0CF407D95B1906F1FF3138D299452E
:1011640036D9023E2B44C9EB0303B3FBF2F002FB76
:1011740010330EFB00F1BFB247EA0343994207D98B
:101184005B1900F1FF3721D299421FD902382B4451
:101194001746591A40EA06464EE7104614E7134626
:1011A40027E70B4670E7B0409042B6D2601E002697
:1011B40022E7304620E7BC4294D9ACF1020C1F442C
:1011C40091E789459FD9023C19449DE73846DFE7FA
:1011D4000E46C8E70238294441E700BF40F0BF602B
:1011E400024B40F40030D860704700BF00ED00E0CF
:1011F400C27810B503780AB3164A03F16043D46881
:101204004278E443C4F30224C4F1040102FA01F174
:101214000F22E240847803F5614322400A4312011D
:10122400D2B283F8002303780122590903F01F0383
:1012340002FA03F3084A42F8213010BD5A09012189
:1012440003F01F03994002F12003034A42F82310DC
:1012540010BD00BF00ED00E000E100E008B5134B55
:10126400984207D14FF40070012100F09DFA4FF429
:10127400007014E00E4B984207D14FF480600121B6
:1012840000F092FA4FF4806009E00A4B98420BD1C7
:101294004FF40040012100F087FA4FF40040002190
:1012A400BDE8084000F080BA08BD00BF002401403A
:1012B40000280140003C0140436810B523F470222B
:1012C4000B6822F4807213430A7943EA02234360D1
:1012D400CB688A6884681A43084B234013434A79CD
:1012E40043EA42038360C36A23F470020B7C013B2C
:1012F400DBB242EA0353C36210BD00BFFDF7F1FF46
:10130400836811B143F0010301E023F0010383601A
:101314007047836811B143F4807301E023F4807350
:1013240083607047836843F0080383607047806874
:10133400C0F3C0007047836843F0040383607047C0
:101344008068C0F380007047836811B143F4A00340
:1013540001E023F4A003836070470000044B9A6803
:1013640010B142F4000201E022F400029A607047D6
:1013740000240140036823F0010303600023036099
:1013840043608360C360294B984201D1284A27E017
:10139400284B984201D1264A2AE0274B984201D192
:1013A400234A2DE0254B984201D1214A30E0244BB9
:1013B400984201D11E4A33E0224B984204D11C4A80
:1013C400536843F470032EE01F4B984204D1184A2B
:1013D400536843F0706326E01C4B984204D11C4AC6
:1013E400536843F00F031EE01A4B984204D1184A85
:1013F400536843F0F00316E0174B984204D1144AA3
:10140400536843F470630EE0144B984204D1104ABD
:10141400536843F4704306E0114B984204D10C4ADC
:10142400536843F470235360704700BF08000240C0
:10143400000002401C000240300002404400024010
:10144400580002406C000240800002400804024040
:10145400000402401C0402403004024044040240E0
:10146400580402408A6810B50C6A036814430A6978
:1014740023F4FF4314434A6923F0700314438A6935
:101484001443CA6914434A6A14438A6A22431343BD
:101494000360CB6843600B6883604B68C36010BD16
:1014A400036811B143F0010301E023F00103036079
:1014B40070470000034A136803F0380318431060B0
:1014C400704700BF00200240044B1A6822F010024B
:1014D4001A601A6810431860704700BF0020024069
:1014E400CA78F0B502F00F03D20644BF8A781343DA
:1014F4000A78DAB10268002401260D88A640354036
:10150400B5420FD1A7000F26BE4022EA060203FA15
:1015140007F63243CE78282E01D1456102E0482EE9
:1015240008BF05610134082CE6D102600A88FF2A4D
:101534001DD94268002404F108050126AE400D8837
:101544003540B5420FD1A7000F26BE4022EA06025D
:1015540003FA07F63243CE78282E08BF4561CE78C9
:10156400482E08BF05610134082CE4D14260F0BD67
:10157400016170474161704730B5134C00F4401568
:10158400B5F5401F636882B206D1656823F07063C5
:1015940025F0706565600EE0C40255BF440D032458
:1015A4002401C0F303454CBFAC4002FA04F423EA1F
:1015B400040343F0706319B1400D000182401343EA
:1015C400014A536030BD00BF000001400D4B1A6852
:1015D40042F001021A6059680B4A0A405A601A68BC
:1015E40022F0847222F480321A601A6822F4802273
:1015F4001A605A6822F4FE025A604FF41F029A607D
:10160400704700BF001002400000FFF80C4BB0F51B
:10161400803F1A6822F480321A601A6822F4802209
:101624001A6003D0B0F5802F04D070471A6842F4D2
:10163400803202E01A6842F4A0221A60704700BFA8
:1016440000100240034A536823F47C1319430843EF
:101654005060704700100240014B1860704700BF93
:1016640060004242034A536823F003031843506066
:10167400704700BF00100240024B586800F00C0095
:10168400704700BF00100240034A536823F0F00380
:1016940018435060704700BF00100240034A53686B
:1016A40023F4E06318435060704700BF0010024009
:1016B400034A536823F4605343EAC0005060704700
:1016C40000100240034A536823F440431843506017
:1016D400704700BF0010024010B51C4A536803F065
:1016E4000C03042B01D0082B01D0194B0EE05368D6
:1016F4005168C3F38343CC0303F1020302D5516859
:10170400890301D5134900E011494B430360536831
:10171400114CC3F30313E15C0368CB40436051688D
:10172400C1F30221615C23FA01F181605168C1F3C4
:10173400C221615CCB40C36052680849C2F3813264
:101744008A5CB3FBF2F3036110BD00BF00100240DA
:1017540000127A0000093D0004000020000000206F
:10176400044B5A6909B1104301E022EA00005861B0
:10177400704700BF00100240044B9A6909B110433E
:1017840001E022EA00009861704700BF00100240A7
:10179400044BDA6909B1104301E022EA0000D86180
:1017A400704700BF00100240044BDA6809B11043CF
:1017B40001E022EA0000D860704700BF0010024038
:1017C4004209012A074B01D11B6803E0022A0CBF1E
:1017D4001B6A5B6A00F01F0023FA00F000F00100AE
:1017E400704700BF0010024007B500230193312069
:1017F400FFF7E6FF019B01330193019BB3F5A06F53
:1018040001D00028F3D03120FFF7DAFF003018BFF1
:10181400012003B05DF804FB03884A8810B503F483
:1018240041540B8813438A881343CA8813430A8993
:1018340013434A8913438A891343CA8913432343AD
:101844009BB20380838B23F400631B041B0C8383F0
:101854000B8A038210BD038819B19BB243F0400385
:1018640003E023F040031B041B0C038070478181B9
:101874007047808980B270470389194214BF0120E0
:101884000020704730B50D460446038ACA889BB2CF
:1018940023F440531343038282890989AB8892B2AB
:1018A4000B43698922F4B0520B4322F00C02134318
:1018B4009BB28381838AAA899BB223F4407387B045
:1018C4001343838201A8FFF707FF039B049A0E4981
:1018D4008C4218BF1A46192353432A689200B3FB5B
:1018E400F2F26423B2FBF3F00001010903FB1122BD
:1018F40012013232B2FBF3F303F00F0303439BB242
:10190400238107B030BD00BF00380140838919B17D
:101914009BB243F4005303E023F400531B041B0C59
:101924008381704710B5C1F34214012301F01F01F4
:10193400012C03FA01F301D10C3003E0022C0CBF9B
:101944001030143012B10268134302E0026822EA34
:101954000303036010BDC1F30801818070478088D0
:10196400C0F308007047C94389B20180704701235E
:1019740010B5C1F3421401F01F029C4203FA02F2B3
:1019840001D1838903E0022C0CBF038A838A9BB2B2
:101994001340028892B23BB1090A01238B401342DF
:1019A40014BF0120002010BD184610BD10B500F072
:1019B4001BF800F063F9642002F010FB08480949A1
:1019C40000F024F902F03EFB044600F0FDFD02F0B5
:1019D40039FB04F131039842F9D302F045FBF1E7F6
:1019E400F33D00087A4A000810B5054C23782BB95A
:1019F40002F074FA02F0AAFA0123237010BD00BFAA
:101A0400DC0000200123092804DD0A22013390FBB5
:101A1400F2F0F8E7184670472DE9F84F0D46824674
:101A2400084693461C46FFF7EDFF002D064604D1F9
:101A34003020D0470120BDE8F88F05DABBF10A0F4A
:101A440002D12D206D42D047A6420ADAA41B2646B5
:101A5400002E03DD3020D047013EF9E724EAE47488
:101A640000E00024012600273B4628460021324698
:101A7400FFF7D8F850EA0103D8464FEAEB7907D0CC
:101A840006FB09F30BFB0733A6FB0B671F44EBE7CD
:101A9400304639464B464246FFF7C4F806460F46E1
:101AA40056EA07030ED032463B4628460021FFF78C
:101AB400B9F842464B46FFF7B5F8044B0134985C3D
:101AC400D047E5E72046BDE8F88F00BF934A0008F9
:101AD4002DE9F04707460E461546002430780028C5
:101AE40000F08E80252840F08780474B4FF0060990
:101AF40019680136324612F8013BC818407880074D
:101B04000AD12E2BF5D17378C8184078460748BF00
:101B1400A3F130091646ECE7662B16461BD003D812
:101B2400582B0DD0642B04E0732B55D0782B07D0A1
:101B3400692BD3D105F10408384629680A2204E048
:101B44003846296805F1040810220023FFF764FFD2
:101B540045460444C2E7073525F00703D3E90001ED
:101B640003F10805FEF7F4FC00218046FEF7ECFFC4
:101B740020B12D20B84708F1004801344046FFF752
:101B84000BF88246002351460A223846FFF744FFE9
:101B940004442E20B8475046FEF7E4FD0146404673
:101BA400FEF72AFD0134804601230A204B4503DA5F
:101BB4000A2250430133F9E7FEF7D4FD01464046BB
:101BC400FEF724FEFEF7E8FF0A2201464B4638469C
:101BD400FFF722FF044481E7D5F8008005F10409EA
:101BE4004546C8EB04032B4415F8010B08B1B8476C
:101BF400F7E74D461C4671E70136B84701346DE7F7
:101C04002046BDE8F08700BF740000200EB403B581
:101C140003AA52F8041B0192FFF75AFF02B05DF8C1
:101C240004EB03B07047000000F026F80C4880F382
:101C34000888002103E00B4B5B58435004310A48E9
:101C44000A4B42189A42F6D3094A02E0002342F8AA
:101C5400043B084B9A42F9D3FFF7A8FE70470000F3
:101C640000500020105C000800000020DC00002070
:101C7400DC000020FC0D00207047FEE708B54FF49F
:101C84004070FFF7ABFA0C480121FFF775FC01F037
:101C9400E9FF0A490A48FFF7B9FF01F0B7FB00F072
:101CA4000DF900F095F900F0A1F800F0D3FB00F075
:101CB40097FC002008BD00BF00023000A34A0008C2
:101CC400F33D000810B504460A480221FFF7D4FD8D
:101CD4000028F9D007482146FFF7C9FD054801212E
:101CE400FFF7CAFD0028F9D00248FFF7C2FDC0B2D1
:101CF40010BD00BF0038004070B506460C460D48C4
:101D040020211546FFF736FC0A481021FFF732FC64
:101D14003046FFF7D7FF06462544AC4204D014F8FA
:101D2400010BFFF7CFFFF8E702481021FFF720FC73
:101D3400304670BD000C014070B505460B4C0E4694
:101D440020462021FFF716FC10212046FFF712FC45
:101D54002846FFF7B7FF05463046FFF7B3FF204696
:101D64001021FFF705FC284670BD00BF000C0140A0
:101D7400F8B505460E460F4820211446FFF7FAFB36
:101D84000C481021FFF7F6FB2846FFF79BFF074698
:101D9400013C751E3444A54205D0FF20FFF792FF95
:101DA40005F8010FF7E703481021FFF7E1FB384678
:101DB400F8BD00BF000C014038B50B4C2021204673
:101DC400FFF7D8FB10212046FFF7D4FB0720FFF7CD
:101DD40079FFFF20FFF776FF054610212046FFF725
:101DE400C7FB284638BD00BF000C014038B5184871
:101DF400047934BB174B184A196804331B681468F8
:101E04005A18224402EB116202EB136202EB1462D1
:101E1400C1F307252A44C1F307410A44C3F3072148
:101E24000A44C3F30743134403EB142303EB14449E
:101E340014F0FF04094B08BF01241C70084B047103
:101E44001C71084922460848FFF7E0FE204638BDC9
:101E54001D000020E8F7FF1FF0F7FF1FDD00002042
:101E640018000020C64A0008F33D000810B54FF4DE
:101E7400827286B0104C0023ADF806204FF4007235
:101E8400ADF80430ADF80830ADF80A30ADF80C30D8
:101E9400ADF80E20ADF8123018220723204601A910
:101EA400ADF81020ADF81430FFF7B6FC2046012140
:101EB400FFF7D1FC06B010BD00380040F7B54FF471
:101EC40080400121254C02ADFFF762FC2027192038
:101ED4000121FFF751FC25F8047D03231026204639
:101EE40029468DF806308DF80760FFF7F9FA204689
:101EF4002946ADF80460FFF7F3FA48238DF807305C
:101F040020464FF480532946ADF80430FFF7E8FA31
:101F140018238DF8073020464FF420432946ADF8A6
:101F24000430FFF7DDFA0423204629468DF80730F4
:101F34004FF48043ADF80430FFF7D2FAFFF796FF71
:101F440020463946FFF716FB20463146FFF710FBC3
:101F540003490448FFF75AFE03B0F0BD000C0140EA
:101F6400E14A0008F33D000838B5164D164C2871B7
:101F7400207120211548FFF7FDFA2946052230205B
:101F8400FFF7BAFE052221462A20FFF7B5FE0121FC
:101F94002120FFF7D1FE01212220FFF7CDFE0521EC
:101FA4002420FFF7C9FE64212520FFF7C5FE0F2179
:101FB4002620FFF7C1FEBDE8384020200E21FFF7A0
:101FC400BBBE00BF1D00002018000020000C014013
:101FD40007B50F4905223020FFF78EFE694605221A
:101FE4001020FFF7C5FE0A486946052202F00AFDE3
:101FF40028B908480849FFF709FE012004E005480C
:102004000649FFF703FE002003B05DF804FB00BFA0
:102014001D000020F33D0008FA4A0008134B000895
:1020240010B5044600212720FFF786FEFF21E1209A
:10203400FFF782FE1B482021FFF79CFA202221464D
:10204400A020FFF759FE17482021FFF791FA6420DA
:1020540001F0DAFF0023134A9268D20404D5B3F5E1
:10206400805F04D00133F6E7B3F5805F09D1002126
:102074002720FFF761FEFF21E120FFF75DFE00202E
:1020840010BDFFF799FE044627202146FFF754FEB2
:10209400FF21E120FFF750FEE30654BF04F02000C7
:1020A400102010BD000C014007B504200121FFF7EA
:1020B40063FB4FF4C053ADF8043010238DF80730A0
:1020C4000448032301A98DF80630FFF709FA03B089
:1020D4005DF804FB0008014070B5134B134E5A68B9
:1020E400012422F470425A605A68114D42F440525D
:1020F4005A602046346001F087FF2C600D4C0520A7
:1021040001F082FF23680BB9012070BD0023336006
:10211400052001F079FF2468002CF5D12C60022001
:1021240001F072FF204670BD00080140AC0121425D
:10213400B00121422C01214270B50E4B0E4E5A685B
:102144000E4C22F470425A605A68012542F44052FF
:102154005A60002333600420236001F055FF35608A
:10216400052001F051FF25600420BDE8704001F016
:102174004BBF00BF00080140B0012142AC01214225
:1021840038B5114B01255A68104C22F470425A603C
:102194005A68284642F400425A600D4B1D6001F013
:1021A40033FF2560284601F02FFF40F2E933094A46
:1021B400106838B1013B9BB2002BF8D1FFF7BCFF8C
:1021C400012038BD206038BD00080140B001214223
:1021D400AC0121422C01214238B50C4C0C4B00259A
:1021E40025605A68022022F470425A605A6842F408
:1021F40040525A60074B1D6001F006FF0123236023
:10220400022001F001FF256038BD00BFB00121426A
:1022140000080140AC01214270B50C4C0C4B002568
:1022240025605A68012622F470425A605A680220D6
:1022340042F440525A60074B1E6001F0E5FE2660EE
:10224400022001F0E1FE256070BD00BFB001214213
:1022540000080140AC01214270B50646134B144DF1
:102264005A68082422F470425A605A6842F4405270
:102274005A6000232B6016F0800F0E4B14BF01220E
:1022840000221A60022001F0BFFE01232B6002200D
:1022940001F0BAFE00232B600220013C760001F01D
:1022A400B3FE14F0FF04F6B2E5D170BD000801409E
:1022B400B0012142AC012142F8B50546144B082770
:1022C4005A68002422F470425A605A6842F4004268
:1022D4005A60104E00233360022001F095FE012362
:1022E40033609C400C4BE4B21B680BB10134E4B284
:1022F400012001F089FE7B1E13F0FF07E9D115B917
:10230400FFF78AFF01E0FFF767FF2046F8BD00BF33
:1023140000080140B00121422C01214210B50446BD
:10232400FFF7DAFE70B9600000F0FE00FFF794FFDB
:10233400FFF726FF044610B1FFF7FEFE02E0FFF7A9
:10234400FBFE00E00124204610BD0000F8B5054660
:102354000E4614461F46FFF7BFFE08BB2846FFF78C
:102364007BFFFFF70DFF054630B10F490F48FFF71C
:102374004DFCFFF7E1FE13E03046FFF76DFFFFF77A
:10238400FFFE013C7E1E3C44A64206D016F8010F17
:10239400FFF762FFFFF7F4FEF6E7FFF7CDFE00E07C
:1023A40001252846F8BD00BF2B4B0008F33D00086B
:1023B400F8B504460D4616461F46FFF78DFE38B99C
:1023C4002046FFF749FFFFF7DBFE18B1FFF7B4FE25
:1023D400012520E02846FFF73FFFFFF7D1FEFFF776
:1023E4007BFE0028F4D144F00100FFF735FFFFF72E
:1023F400C7FE05460028E9D10446B44209D0731E3D
:102404009C420CBF00200120FFF756FF38550134D1
:10241400F3E7FFF791FE2846F8BD03785AB2002A85
:102424000EDC7BB943785AB2002A0DDC73B9837889
:102434005AB2002A0CDC002B14BF06200720704778
:102444000020704704207047012070470520704722
:1024540002207047F8B5FFF727FE47484749FFF7C2
:10246400D5FB0024E5B22846FFF758FF30B94248AF
:1024740043492246FFF7CAFB424B1D7001347F2CAF
:10248400F0D1404B1978FF2905D1BDE8F8403A480E
:102494003D49FFF7BBBB3D4800250126056085800B
:1024A4008571C67100F0E0FE394902463248FFF7F3
:1024B400ADFB792000F030FC364902462E48FFF788
:1024C400A5FB782000F068FA334902462A48FFF752
:1024D4009DFB01F001F8314902462748FFF796FBBE
:1024E4002F48FFF79AFF04462E48FFF796FF07464A
:1024F4002D48FFF792FF800140EAC700204380B2D5
:1025040000F0F4FF294C024629491B48FFF77EFBE3
:102514001020E08001F060FA264902461648FFF7D1
:1025240075FB642001F090F8234902461248FFF736
:102534006DFB304600F04CFD204902460E48FFF783
:1025440065FB29460E22204602F054FA0323237029
:1025540064200423A38000F095FB19490246064831
:10256400FFF754FB642000F0F1F9164902460248D3
:10257400FFF74CFB6670F8BDF33D00083A4B0008CA
:10258400534B00082B0000206A4B00087C0D0020F0
:10259400854B00089B4B0008B54B0008D54B000841
:1025A400220000202500002028000020DE0000205A
:1025B400F24B0008134C0008334C0008524C00083E
:1025C400714C0008924C000807B504480DF107014E
:1025D40001F0F0FA002003B05DF804FB9C0D00202C
:1025E40010B5074B1878FFF799FE044605480CB957
:1025F400054900E00549FFF709FB204610BD00BF6F
:102604002B000020F33D0008BB4C0008D44C00080C
:1026140007B5144A92F8243013B150B1022305E0EF
:10262400917AB9B128B1517CB9B901238DF8073039
:1026340001E08DF807005168136808780122597C7D
:102644000DF10703FFF782FE20B99DF80720054B23
:102654005A7403E04FF0FF3000E0184603B05DF811
:1026640004FB00BF2C00002073B5574CA37A13B9A8
:102674004FF0FF30A6E002AE002306F8013D626889
:1026840023681078597C01223346FFF75FFE002847
:10269400EED1626823681078597901223346FFF736
:1026A40055FE0028E4D16268236810781979012264
:1026B4003346FFF74BFE0028DAD194F82430002B80
:1026C4003CD00C238DF807306268236810781979A0
:1026D40001223346FFF73AFE0028C9D1322001F027
:1026E4007DFCC0238DF80730A37ADA0744BFE023CA
:1026F4008DF807306268236810781979012233460F
:10270400FFF724FE0028B3D12F4B5B7C03B10223D7
:102714008DF80730626823681078597C01223346AB
:10272400294DFFF713FE0028A2D16A682B688DF8A3
:10273400070010785979012233463DE004238DF8CF
:102744000730626823681078197901223346FFF74D
:10275400FDFD00288CD1A37C13B9A37ADB0701D437
:10276400402300E060238DF8073062682368107806
:10277400197901223346FFF7E9FD00287FF478AF89
:10278400322001F02BFC104B5B7C03B101238DF84C
:102794000730626823681078597C012233460A4D59
:1027A400FFF7D4FD00287FF463AF2B46696853F824
:1027B400102B087851790122FFF7C8FD003018BFAB
:1027C4000120404202B070BD2C00002013B51A4B0A
:1027D4009A7A52B3B0F5FA7F0CD003D8FA2824D1F0
:1027E40000220AE0B0F57A7F06D0B0F5FA6F1CD16A
:1027F400182202E0082200E010228DF807209DF83C
:1028040007201B7A0C4CB3EBD20F11D062682368FB
:102814001078997901220DF10703FFF797FD20B98C
:102824009DF80730DB08237203E04FF0FF3000E02F
:10283400002002B010BD00BF2C0000200C4B5A7ABF
:10284400032A12D8DFE802F002040608022204E098
:10285400042202E0082200E010220280DB7C13B193
:1028640003885B000380002070474FF0FF307047FF
:102874002C00002013B5184B9A7A3AB304280AD0D6
:1028840003D8022822D1002208E0082805D0102805
:102894001CD1182202E0082200E010228DF8072043
:1028A4009DF807205B7A0C4CB3EBD20F11D0626811
:1028B40023681078D97901220DF10703FFF746FD4B
:1028C40020B99DF80730DB08637203E04FF0FF3056
:1028D40000E0002002B010BD2C00002013B51A4BFC
:1028E4009A7A12B94FF0FF302BE0BB2801D90122AC
:1028F4000FE0612801D902220BE0292801D9032223
:1029040007E0132801D9042203E009288CBF05221B
:1029140006228DF80720DA7A9DF807300A4C9A428D
:102924000ED0626823681078997801220DF10703AC
:10293400FFF70CFD0028D5D19DF80730E37200E0C5
:10294400002002B010BD00BF2C00002013B510B948
:102954004FF0FF301CE00F4CE3899842F8D864280C
:10296400F6D8B3FBF0F061680138226802AB03F8D3
:10297400010D087892F824100122FFF7E7FC0028E3
:10298400E6D19DF80730E289013392FBF3F3238506
:1029940002B010BD2C000020F8B5134B93F824208E
:1029A4001E46D2B99C7AD4B100F0FE052C401F7C9F
:1029B4001C74641B18BF4FF0FF340DB9187D20B18F
:1029C4000120FFF725FE65B102E0FFF721FE08E0D4
:1029D400FFF74AFE28B1377401E0002401E04FF00C
:1029E400FF342046F8BD00BF2C0000202DE9F7433A
:1029F400244D064695F8243089461746A8469BB1CF
:102A0400AB7A8BB16A682B681078197B022201AB10
:102A1400FFF7CEFC40B99DF804409DF8053043EA29
:102A24000424B44203D238704FF0FF3026E06B68C0
:102A34005A88B4EB520F11D92A681878D17C01ABAB
:102A44000122FFF7B5FC0028EED19DF80430DB0627
:102A540004D5FFF709FE6FF001000FE0D8F8042059
:102A6400D8F800301078597BF2B24B46FFF7A0FC3F
:102A74000028D9D1B4FBF6F4013C3C7003B0BDE8A6
:102A8400F08300BF2C00002037B5364C0546A37CEC
:102A9400834263D0626823681078197901220DF1AA
:102AA40007030DB3FFF784FC10B14FF0FF3056E07D
:102AB4009DF80730626823F020038DF807302368FF
:102AC4001078197901220DF10703FFF73FFC002864
:102AD400EBD1032001F082FA02238DF8073094F839
:102AE400223033B3822322E0FFF762FC0028DCD1DA
:102AF400A37A626813F0010F9DF8073014BF43F006
:102B0400200323F020038DF8073023681078197907
:102B140001220DF10703FFF719FC0028C5D103209A
:102B240001F05CFA0F4B93F8223003B180238DF847
:102B3400073094F823302BB19DF8073043F030036D
:102B44008DF80730626823681078D97D01220DF171
:102B54000703FFF7FBFB0028A7D1A574002003B0EF
:102B640030BD00BF2C00002013B5194B044693F868
:102B74002320824225D018B130228DF8072001E0AD
:102B84008DF807009A7C2AB19DF8072042F00202D2
:102B94008DF8072093F822202AB19DF8072062F0CF
:102BA4007F028DF807205A681B681078D97D0122AE
:102BB4000DF10703FFF7CAFB28B9054B83F823403F
:102BC40003E0002001E04FF0FF3002B010BD00BF71
:102BD4002C000020282873B5044636D8284E88B91E
:102BE400FFF7C2FF07238DF80530726833688DF84C
:102BF40004401078597D022201ABFFF7A7FB20BBEC
:102C040030753BE00120FFF7AFFF012C01D1022317
:102C14000FE0022C01D103230BE0052C01D804237F
:102C240007E00A2C01D8052303E0142C94BF0623E3
:102C340007238DF80430726833681078597A0122BA
:102C440001AB0F4DFFF782FB10B14FF0FF3015E0E1
:102C540020238DF804306A682B681078597D01228E
:102C640001ABFFF773FB04460028EED10823AB72D7
:102C7400012328732B75FFF78FFE204602B070BD29
:102C84002C000020F7B5234B04469A7A1F4612B94C
:102C94004FF0FF303CE093F82450002DF8D11B7D19
:102CA4004BB1431E272B03D8C0B2FFF793FF2EE08E
:102CB4002846FFF78FFF032C05D9B4F57A7F28BF88
:102CC4004FF47A7400E004244FF47A7696FBF4F41B
:102CD40079683A68013C02AB03F8014D08785178F1
:102CE4000122FFF733FB0B4C05460028D0D19DF899
:102CF4000730208D013396FBF3F6642828BF642047
:102D0400E681FFF723FEE0894008FFF7E7FD284648
:102D140003B0F0BD2C00002010F0700373B505461D
:102D240001D0012301E000B940234A4C8DF806305C
:102D3400626823681078597D01220DF10603FFF7BC
:102D440005FB10B10023A3723EE09DF806306E0629
:102D540023F0400323735ABF04238DF806308DF803
:102D64000600A9065EBF9DF8063043F002038DF805
:102D74000630EA0658BF9DF8063062685CBF43F02F
:102D840001038DF806302B075EBF9DF8063043F033
:102D940038038DF8063023681078997D01220DF1EF
:102DA4000603FFF7D3FA0028CCD115F0F70F01D0B2
:102DB400FFF7DAFE626823681078197901220DF1B1
:102DC4000703FFF7F5FA10B14FF0FF3040E015F0BC
:102DD400010F9DF8073015BF1122102243F0200384
:102DE40023F0200314BF8DF806208DF8062094F8F4
:102DF40024208DF807309DF8073012B163F07F036B
:102E040001E003F07F038DF80730626823681078CF
:102E140093F8261001220DF106030E4EFFF796FAE1
:102E24000028D1D1726833681078197901220DF124
:102E34000703FFF78BFA04460028C5D1307532200A
:102E4400B57201F0CBF804480449FEF7DFFE2046D2
:102E540002B070BD2C000020F33D0008144D0008A2
:102E640073B50E46154612B94FF0FF3023E0134CEC
:102E7400A37A002BF8D0030A8DF804306368C0B23B
:102E84005A898DF8050008449042EDDC22681878D0
:102E9400D17E01AB0222FFF759FA0028E4D162681F
:102EA40023681078197EF2B22B46FFF74FFA0030F0
:102EB40018BF0120404202B070BD00BF2C000020AA
:102EC40073B50E46154612B94FF0FF3023E0134C8C
:102ED400A37A002BF8D0030A8DF804306368C0B2DB
:102EE4005A898DF8050008449042EDDC2268187870
:102EF400D17E01AB0222FFF729FA0028E4D16268EF
:102F040023681078197EF2B22B46FFF751FA00308D
:102F140018BF0120404202B070BD00BF2C00002049
:102F24002DE9F04F294D87B007468846164602A87A
:102F340000211022994601F05DFD95F8254014B159
:102F44004FF0FF303EE0B8F1000FF9D0BC4221D27F
:102F5400C4EB070ABAF1100FA8BF4FF0100A1FFA0A
:102F64008AFA08EB040B204651465A46FFF778FFCD
:102F74000028E5D12046514602AAFFF7A1FF002808
:102F8400DED1584602A9524601F024FDC0B954448A
:102F9400A4B2DBE7330A8DF804306A682B688DF835
:102FA40005601078597F022201AB084CFFF7CEF977
:102FB4000028C5D1012384F82530A4F8269001E027
:102FC4006FF0010007B0BDE8F08F00BF2C000020B7
:102FD40037B51C4D044695F8243083422CD0D8B123
:102FE40095F8253053B30020FFF712FB0020FFF7BC
:102FF4004BFDE88CFFF746FE00246A6802AB03F839
:10300400014D107823210122FFF7A0F9012085F852
:103014002400FFF7FDFA0DE0FFF7FAFA2A7C02AB71
:1030240003F8012D6A68232110780122FFF78EF935
:1030340085F82440FFF718FB002001E04FF0FF3033
:1030440003B030BD2C00002073B50120FFF71CFD38
:10305400182528460021012201ABFFF7A9F918B968
:103064009DF80430482B0AD00135EDB21F2DF0D164
:1030740079487A49FEF7CAFD4FF0FF30EAE0784C10
:10308400012084F82A5000F0A9FF76497248FEF71F
:10309400BDFD102694F82A000A21012201AB8DF807
:1030A4000460FFF753F90028E6D1012000F096FFF1
:1030B4006C496948FEF7AAFD1F238DF8043094F883
:1030C4002A000A21012201ABFFF740F90028D3D1DD
:1030D400012000F083FF63495F48FEF797FD94F8F1
:1030E4002A003146032201ABFFF762F90028C3D15D
:1030F4009DF804305B498033A3859DF8053056481C
:103104008033E3859DF8063080332386FEF77EFD09
:1031140094F82A000A21012201AB8DF80460FFF71C
:1031240015F906460028A7D1012000F057FF4D49A4
:103134004948FEF76BFD3046FFF7A6FC40238DF8A7
:103144000430626823686D0884F82A501078997EE8
:10315400012201ABFFF7FAF800288DD194F82A3048
:10316400626863F07F038DF8043023681078997FD8
:10317400012201ABFFF7EAF800287FF47DAF0223B8
:103184008DF80430626823681078D97F012201AB7E
:10319400FFF7DCF800287FF46FAF88238DF8043044
:1031A40062682368107893F82010012201ABFFF7BE
:1031B400CDF800287FF460AF94F82A3062688DF867
:1031C40004302368107893F82110012201AB244DB8
:1031D400FFF7BCF800287FF44FAF0A238DF80430C2
:1031E4006A682B68107893F82210012201ABFFF76C
:1031F400ADF800287FF440AF81238DF804306A686D
:103204002B68107893F82310012201ABFFF79EF886
:1032140000287FF431AF11238DF804306A682B68DD
:10322400107893F82610012201ABFFF78FF80028DD
:103234007FF422AF03238DF804306A682B6810787A
:1032440093F82710012201ABFFF780F8003018BF74
:103254000120404202B070BDF33D00084D4D00080E
:103264002C0000203B4D0008F7B50D46474C48495B
:10327400636806461A7847482B46FEF7C7FC63681E
:103284006A001A7044492A464248FEF7BFFC02AD60
:10329400802305F8083D626823681078597D01226F
:1032A4002B46FFF753F8074610B14FF0FF346AE09E
:1032B4004FF4FA7000F092FE38493648FEF7A6FC47
:1032C400626823688DF800701078597D01222B46BE
:1032D400FFF73CF80028E8D1482331492D488DF800
:1032E4000030FEF793FC626823681078197A012293
:1032F4002B46FFF72BF805460028D6D14FF6FF7270
:10330400FF23A37223726372E372E2812374A374B2
:103314002285012384F8230060752075294604F171
:1033240016000C22237384F8223001F063FB4FF45F
:10333400FA6084F8245084F82550E584FFF746FAAF
:103344000028B2D10220FFF795FA0028ADD12A2037
:10335400FFF7C4FA0028A8D13220FFF793FC002815
:10336400A3D1FFF719FB044600289ED11EB1FFF735
:103374006BFE024600E0024606480A49FEF746FC98
:103384000020FFF7C9FC204603B0F0BD2C0000204C
:103394006A4D0008F33D0008A54D0008CE4D000815
:1033A400ED4D00080F4E000810B50120144C8CB0F0
:1033B4000146FEF7D5F92046FDF7DCFF114B4FF42B
:1033C400806201934FF4807307930F4B089202932A
:1033D400002303930B930593202309934FF4005385
:1033E40080220A9320460E2301A906920493FEF735
:1033F40039F820460121FEF753F80CB010BD00BF88
:10340400080002404C240140B80D002010B51C20D7
:1034140086B00121FEF7B0F901214FF40070FEF7E8
:10342400ABF94FF40040FEF74DF91E48FDF716FFC7
:103434000023019304934FF46023012401A903930F
:1034440018480E238DF814308DF809408DF8084083
:10345400FDF732FF2046FDF781FF12482146FDF7B4
:1034640058FF10482146FDF74BFF0E48FDF75AFF61
:103474000C48FDF75CFF0028FAD10A48FDF75BFF12
:103484000848FDF75DFF0028FAD106480121FDF741
:103494005BFFFFF789FF04490448FEF7B7FB06B05A
:1034A40010BD00BF00240140584E0008F33D000841
:1034B4001FB5084A01AB10685168127A03C3092189
:1034C4001A704FF4976001AAFFF7CAFC05B05DF8C3
:1034D40004FB00BF3A4A000840F6F63002494FF4B4
:1034E4008062C823FFF71CBD704E000810B5544B12
:1034F40086B09A7819888DF80A201A46ADF8081013
:1035040032F8031F04469278ADF80C108DF80E20A3
:103514001A4632F8061F9278ADF810108DF8122072
:1035240033F8092F00F003019B78ADF814208DF8CF
:10353400163006AB194411F8103CC0F3C1028DF8E3
:10354400003006AB1A4412F8103C11F80C1C8DF82C
:103554000130C0F3811306A8034413F8100C12F8C9
:103564000C2C13F80C3C8DF802008DF804108DF827
:10357400052040F2264003216A468DF80630FFF705
:103584006FFC10B14FF0FF3057E040F22A400321A6
:1035940001AAFFF765FC0028F4D1049B6107ADF88C
:1035A40000304FEA13438DF80230059B4FF48860D6
:1035B400ADF804304FEA13438DF8063048BF9DF848
:1035C40000304FF0030141BF43F001038DF8003098
:1035D4009DF8043043F0010348BF8DF80430A2067F
:1035E40048BF9DF801306A4641BF43F001038DF89E
:1035F40001309DF8053043F0010348BF8DF80530D4
:10360400E30541BF9DF8023043F001038DF8023019
:103614009DF8063044BF43F001038DF80630FFF7F0
:103624001FFC0028AED140F23140032101AAFFF76C
:1036340017FC0028A6D1034B1C8106B010BD00BFA7
:10364400434A0008EC00002010B50446154A86B031
:103654001068516803AB03C39068C82C186002D982
:103664004FF0FF301CE0C82393FBF4F3013B9BB203
:103674001A0A8DF8042040F21620022101AA8DF8BE
:103684000530FFF7EDFB0028EAD10C2140F6C120FC
:103694000DEB0102FFF7E4FB0028E1D1024B9C8112
:1036A40006B010BD4F4A0008EC00002073B5054673
:1036B400680700F09280B1F5C86F00F28E8008466A
:1036C400FDF74CF84749FDF755F904460DF10300A1
:1036D400FFF7B4F89DF80330042B1CD00CD8022B50
:1036E4007BD14FF08D412046FDF790F8FDF77AFA33
:1036F4003D4986B2204623E0082B17D0102B6CD10D
:103704004FF08A412046FDF781F8FDF76BFA3749FF
:1037140086B2204614E04FF08C412046FDF776F83F
:10372400FDF760FA324986B2204609E04FF08B413A
:103734002046FDF76BF8FDF755FA86B220462D4971
:10374400FDF764F8FDF74EFA330A80B28DF80430C1
:10375400EA074FEA10238DF805608DF806308DF8DE
:10376400070002D4AB0720D510E04FF4EA70022121
:1037740001AAFFF775FB80BB4FF4927002210DF193
:103784000602FFF76DFB0028ECD026E04FF4EC7046
:10379400022101AAFFF764FBF8B94FF494700221E7
:1037A4000DF10602FFF75CFBB8B905F0040505F05E
:1037B400FF00A5B14FF4EE70022101AAFFF750FB00
:1037C40058B94FF4967002210DF10602FFF748FB39
:1037D400003018BF0120404201E04FF0FF3002B03A
:1037E40070BD00BF00004843000040460000C044D4
:1037F4000000C0450000404507B510F0010318BFA4
:1038040030238DF80730820748BF9DF807304FF00A
:10381400010144BF43F00C038DF80730430748BF50
:103824009DF807300DF1070248BF43F003034FF43E
:10383400A47048BF8DF80730FFF712FB03B05DF8A2
:1038440004FB07B518B1042828BF042000E00120B8
:1038540002AA013802F8010D012140F24F10FFF7CE
:10386400FFFA03B05DF804FB052307B5B0FBF3F0E2
:103874000221030A8DF8050001AA4FF4EF708DF8B8
:103884000430FFF7EDFA03B05DF804FB052307B538
:10389400B0FBF3F00221030A8DF8050001AA4FF4EE
:1038A400ED708DF80430FFF7DBFA03B05DF804FB2C
:1038B4004FF47A7307B590FBF3F041430B168DF880
:1038C40004300B148DF805308DF807100B12042109
:1038D4000DEB01024FF4AE708DF80630FFF7C0FA1D
:1038E40003B05DF804FB052307B5B0FBF3F0022138
:1038F400030A8DF8050001AA4FF4AD708DF8043069
:10390400FFF7AEFA03B05DF804FB052307B5B0FB7F
:10391400F3F00221030A8DF8050001AA4FF4AC70FC
:103924008DF80430FFF79CFA03B05DF804FB000047
:103934001FB510B1FFF7BCFD0CE0084A01AB1068DD
:103944005168127A03C34FF497601A70092101AACF
:10395400FFF786FA05B05DF804FB00BF5B4A000878
:1039640007B560B1C0238DF80430C2238DF805304B
:10397400C4238DF80630C6238DF8073002E04FF0DB
:103984008B33019304210DEB010240F69820FFF7DD
:1039940067FAFEF769FE03B05DF804FB07B560B192
:1039A40020238DF8043028238DF8053030238DF83A
:1039B400063038238DF8073002E04FF0A33301932B
:1039C40004210DEB010240F69E20FFF749FAFEF7B1
:1039D4004BFE03B05DF804FB2DE9FF4104460223CE
:1039E4008DF80430CA238DF805300421E3238DF8C3
:1039F4000630682009230DEB010204F040068DF81F
:103A04000730B6B2FFF72CFAA3238DF804303EB189
:103A1400C0238DF80530C8238DF80630C22303E097
:103A24008DF805308DF8063014F4C0778DF8073022
:103A34001DBFC4238DF80830CC23A32319BF8DF8F0
:103A44000930C6238DF808308DF809308DF80A3016
:103A54000A21A32301AA40F6A7208DF80B308DF884
:103A64000C308DF80D30FFF7FBF914F0030814BF88
:103A74002023D82340F6B620012101AA8DF8043072
:103A8400FFF7EEF904F0200080B210B1FFF710FD4B
:103A940001E0FFF74DFFFFB1E1050AD5B2238DF830
:103AA40004308B238DF80530B6238DF806309B2324
:103AB40009E0B0238DF8043080238DF80530B42359
:103AC4008DF806309023042140F6A2200DEB01026C
:103AD4008DF80730FFF7C4F9E20724D5F82301AACB
:103AE40001214FF40B608DF80430FFF7B9F9FA2186
:103AF4000720FFF7DBFD0720FFF77EFE0120FFF71D
:103B0400A0FE6420FFF7B0FE4FF4FA70FFF7BEFE8C
:103B1400C8212648FFF7CCFE2820FFF7E4FE0A2040
:103B2400FFF7F3FE08E0D8234FF40B60012101AA4C
:103B34008DF80430FFF794F9A3074CBFD923D82399
:103B440040F23D70012101AA8DF80430FFF788F995
:103B540004F0040080B200B10120FFF701FF04F07B
:103B6400100080B200B10120114DFFF717FF44F09F
:103B740008036B81FEF778FD2B460EB9AE7301E0A6
:103B84000622AA7317B19A7B06329A7314F0140FA3
:103B94001EBF9A7B10329A73B8F1000F02D09A7B41
:103BA40004329A73002004B0BDE8F08109E3CA022C
:103BB400EC00002030B52A4B89B00A460446694619
:103BC400987BFEF713FF0546002844D19DF8013089
:103BD4009DF800001B0443EA00639DF803000343BF
:103BE4009DF8020043EA0020FCF7BCFD9DF8053077
:103BF40020609DF804001B0443EA00639DF807005D
:103C040003439DF8060043EA0020FCF7ABFD9DF852
:103C1400093060609DF808001B0443EA00639DF8C6
:103C24000B0003439DF80A0043EA0020FCF79AFDC9
:103C34009DF80D30A0609DF80C001B0443EA00635E
:103C44009DF80F0003439DF80E0043EA0020FCF7A3
:103C540089FDE06001E04FF0FF35284609B030BD32
:103C6400EC000020F0B5364D87B04FF4E060FDF76E
:103C7400B5FA28460021FDF749FE324B324A0024AA
:103C84005A60324A4FF48066042001219A601D6014
:103C94009E81DE811C825C82DC821C835C839C822C
:103CA400DC611C625C622A4FFDF766FD03238DF81C
:103CB40002304FF40073ADF80030384618236946DB
:103CC4008DF80330FDF70CFC0423384669468DF863
:103CD4000330ADF80060FDF703FC4FF48040012190
:103CE400FDF74AFD4FF4E133029328460C2302A961
:103CF400ADF81230ADF80C40ADF80E40ADF8104000
:103D0400ADF81440FDF7BEFD0122284640F22551CE
:103D1400FDF708FE28460121FDF7F8FD284640215D
:103D2400FDF721FE25238DF8043001A801238DF829
:103D340006408DF80730FDF75BFA07B0F0BD00BF11
:103D440000380140D40D0020FC040020FC000020B9
:103D540000080140F0B50C46631A9BB2934220D28E
:103D6400878A8689012383F31088002585F31088C8
:103D7400B742F7D214F801EB068A476807F806E061
:103D840083F31088038A868901339BB203829E429F
:103D9400838A98BF058201338382002383F31088CA
:103DA400DAE7006840F22771BDE8F0400122FDF730
:103DB400B9BD000038B50C46154600B138BD054BF9
:103DC400DB6903B1984721462A46BDE838400148DB
:103DD400FFF7C0BFD40D002007B502AB03F8011DE7
:103DE40019460122FFF7E6FF03B05DF804FB10B5A6
:103DF400C4B221460020FFF7EFFF204610BD0000AB
:103E040070B5354D40F225512868FDF7B0FDB8B1C5
:103E14002868EC8AAE68FDF7A2FD3055EB8AEA8982
:103E240001339BB29342EB8224BF0023EB826B8B62
:103E340093423EBF284A013353836B6A03B19847C8
:103E4400286840F22771FDF792FD234C0646F0B135
:103E5400A28A62B9206840F22771FDF763FD2068E9
:103E640040F22661BDE870400122FDF75BBD638A24
:103E740094E80500D15CFDF76EFD638AA2890133E5
:103E84009BB29A42638222D8002363821FE0206897
:103E940040F22661FDF76BFDE0B1A28A4AB92068C1
:103EA40040F22661FDF73EFD236A9BB1BDE87040F8
:103EB4001847638A94E80500D15CFDF74CFD638ADA
:103EC400A28901339BB29A42638298BF6682AB8A0D
:103ED400013BAB8270BD00BFD40D002010B5FDF7CF
:103EE40075FB4FF48030FDF791FBFDF77DFC012855
:103EF4000446FAD11020FDF7E7FA0220FDF7DAFABA
:103F04000020FDF7C1FB0020FDF7D2FB4FF48060D9
:103F1400FDF7C4FB4FF480304FF4E011FDF792FB42
:103F24002046FDF799FB3920FDF74AFC0028FAD01A
:103F34000220FDF797FBFDF79FFB0828FBD101202A
:103F44000146BDE81040FDF717BC000010B5002283
:103F54000C2151430D4C013200236018042A4360A4
:103F6400836043706354F3D1094A4FF47A71126841
:103F7400F020B2FBF1F20749013A4A60064A82F89E
:103F840023008B6007230B6010BD00BF0C090020C9
:103F94001400002010E000E000ED00E00B4A13687C
:103FA40033B11368013B136013B9094B01221A7032
:103FB400084A136801331360074A13780133DBB2EC
:103FC400092B88BF00231370704700BF0409002029
:103FD40008090020FC0800200009002078B101280D
:103FE40008BF0220012383F31088054B00221860C8
:103FF400044B1A7082F310881A78012AFCD1704796
:10400400040900200809002010B50B4B0B491B685C
:104014000B4AB3FBF1F35468916858430023084AF0
:1040240092688A42FBD00B4428BF1B199B1A834217
:1040340001D21146F3E710BD1400002040420F00E6
:1040440010E000E0012383F31088034B1868002379
:1040540083F31088704700BFFC080020FFF79EBF61
:104064000021202200F0C6BC2DE9F04F714F8DB025
:10407400B8694FF04251FCF7C9FB4FF04251064674
:10408400F869FCF7C3FB4FF042510546386AFCF768
:10409400BDFB4FF042510446786AFCF7B7FB01467A
:1040A4000746FCF7B3FB314683463046FCF7AEFBCC
:1040B400294608902846FCF7A9FB2146814620465C
:1040C400FCF7A4FB214680463846FCF79FFB2946B3
:1040D40082463046FCF79AFB01465046FCF78EFABE
:1040E4000146FCF78BFA089982465846FCF786FA93
:1040F4004946FCF781FA4146FCF77EFA01465046F0
:1041040000F0F4F84C49FCF781FB4C49FCF732FC15
:10411400214682463046FCF779FB29460990384609
:10412400FCF774FB099A01461046FCF765FA014650
:10413400FCF764FA00F08AF831463846FCF766FB6F
:10414400214606462846FCF761FB01463046FCF74B
:1041540055FA0146FCF752FA089904465846FCF70A
:104164004BFA4946FCF748FA4146FCF747FA014640
:10417400204600F0BBF80546314C2046FFF770FF9F
:10418400812222705822627028462B49FCF73EFB9C
:104194002A49FCF7EFFB2849FCF730FA2649FCF7DB
:1041A400E9FB2649FCF732FB0B909DF82C809DF827
:1041B4002D709DF82E609DF82F50814684F8028062
:1041C400E7702671657150460021FCF7BDFC10B103
:1041D4000AF100439A4650461749FCF7CBFB4FF0CF
:1041E4008941FCF713FBFCF7D7FC4FEA102B8246FE
:1041F400E07184F806B04846FCF756F95FFA8BF391
:1042040006935FFA8AF3CDE9000107930D495246FC
:10421400CDF808800397049605950B48FDF7F6FC46
:104224005820FDF7A1FE06480DB0BDE8F04FFDF79C
:10423400F7BE00BF840D002000003443DB0F49406B
:104244005C0D0020935A0008F33D000870B58AB055
:10425400064600F04DF8224D044695F9003001332E
:1042640003D0304600F096FB10B920460AB070BD6A
:10427400304600F08BFB4FF07E51FCF783FC0028A6
:10428400F3D018490122002330460092089301918B
:10429400FCF70AF902460B461348CDE90423CDE99D
:1042A400022300F057FA95F90030CDE90601022BFC
:1042B4000BD0684600F04CFA38B1089B53B9DDE9DD
:1042C4000601FCF745F90AB070BD00F07DFB21231F
:1042D4000360F2E700F078FB089B0360EFE700BFA0
:1042E40072000020D85A0008E05A000800F04CB9C7
:1042F4002DE9F04720F00045B5F17E5F04460646FF
:1043040000F0C78011DCB5F17C5F16DAB5F1485FC7
:1043140080F2CD808C49FCF771F94FF07E51FCF7A7
:1043240031FC50B12046BDE8F0870146FCF764F942
:104334000146FCF71FFBBDE8F087204600F026FB92
:1043440001464FF07E50FCF757F94FF07C51FCF7D3
:104354005DFA04467D49FCF759FA7D49FCF74EF9AC
:104364002146FCF753FA7B49FCF746F92146FCF752
:104374004DFA7949FCF742F92146FCF747FA7749A7
:10438400FCF73AF92146FCF741FA7549FCF736F98E
:104394002146FCF73BFA734981462046FCF736FA7E
:1043A4007149FCF729F92146FCF730FA6F49FCF70B
:1043B40025F92146FCF72AFA6D49FCF71DF9214637
:1043C400FCF724FA4FF07E51FCF718F9804620469A
:1043D40000F06AF9674B07469D4244DC0146FCF74E
:1043E4000DF9414682464846FCF7C4FA0146504658
:1043F400FCF70CFA27F47F6525F00F058046294663
:104404002846FCF703FA01462046FCF7F5F829464E
:1044140004463846FCF7F2F801462046FCF7AAFAAF
:104424000146FCF7EBF801465348FCF7E5F8014672
:104434004046FCF7E1F8294604462846FCF7DEF836
:1044440001464E48FCF7D8F801462046FCF7D4F85C
:1044540001464A48FCF7D0F8002E3FF764AF00F15C
:104464000040BDE8F08741464846FCF783FA014620
:104474003846FCF7CBF93946FCF7C0F80146FCF79F
:10448400BDF83F49FCF7BAF801463E48FCF7B4F8DA
:10449400E2E73C49FCF7BAF9374905462046FCF700
:1044A400B5F901462846FCF7A9F8BDE8F0870146AE
:1044B400FCF7ACF905462549FCF7A8F92449FCF7B3
:1044C4009DF82946FCF7A2F92249FCF795F82946FC
:1044D400FCF79CF92049FCF791F82946FCF796F97A
:1044E4001E49FCF789F82946FCF790F91C49FCF7AA
:1044F40085F82946FCF78AF91A4906462846FCF746
:1045040085F91949FCF778F82946FCF77FF917492A
:10451400FCF774F82946FCF779F91549FCF76CF8AF
:104524002946FCF773F94FF07E51FCF767F8014612
:104534003046FCF71FFA01462046FCF767F921468E
:10454400FCF75CF8BDE8F087CAF2497108EF11384E
:10455400047F4F3A4611243DA80A4E3E90B0A63E31
:10456400ABAA2A3E2EC69D3D6133303F2D570140F4
:1045740039D119409999793F2EBD3BB3DB0F493F9F
:104584002EBD3B33DB0FC93FF8B521F00044B4F135
:10459400FF4F034614DC20F00046B6F1FF4F0746F8
:1045A4000EDCB1F17E5F3AD08D1705F0020545EAC5
:1045B400D07556B9022D30D0032D2BD13148F8BD1A
:1045C40008461946FCF71AF8F8BDFCB1B4F1FF4FE0
:1045D40029D0B6F1FF4F19D0341BE4153C2C1ADC5A
:1045E400002938DB1846FCF7C5F900F0CFF900F0D4
:1045F400B7F8012D2CD0022D22D0002D2FD0224926
:10460400FBF7FCFF2149FBF7F7FFF8BD002F15DB93
:104614001F48F8BDF8BD1E48EBE71C48F8BDBDE8CF
:10462400F84000F09DB8B6F1FF4F19D0022DF4D038
:10463400032DC3D0012D1BD00020F8BD1548F8BDB3
:104644001149FBF7DBFF01461048FBF7D5FFF8BD26
:1046540000F10040F8BD3C34C4DA0020C9E7F8BDDD
:10466400022D0CD0032D08D0012D04D00A48F8BD2A
:104674004FF00040F8BD0948F8BD0948F8BD0948A5
:10468400F8BD00BFDB0F49C02EBDBB33DB0F494073
:10469400DB0FC93FDB0FC9BFDB0F493FDB0F49BF4E
:1046A400E4CB16C0E4CB164020F00042B2F1FF4F39
:1046B40070B5034604462DD25AB300283DDBB2F54B
:1046C400000F4FEAE0502CD3002631467F38C3F365
:1046D4001603C20743F4000348BF5B0040105B00AD
:1046E40019244FF080728D189D4202DC5B1BA918BF
:1046F4001644013C4FEA43034FEA5202F3D113B18B
:1047040006F001031E44761006F17C5606EBC050F9
:1047140070BD70BD0146FCF779F82146FBF76EFFCA
:1047240070BD14F400020FD15B00190202F1010202
:10473400FAD5C2F101021044C6E70146FBF75CFF5B
:104744000146FCF717F970BD01221044BCE700BF15
:104754000020704700200149704700BF0000F87F27
:104764002DE9F04120F00045B5F1A14F044606467D
:1047740008DBB5F1FF4F6FDC002840F3A0806F48E1
:10478400BDE8F0816E4B9D4277DCB5F1445F68DB98
:104794004FF0FF3721462046FCF738F801468046A3
:1047A400FCF734F805466749FCF730F86649FBF72F
:1047B40025FF2946FCF72AF86449FBF71FFF294621
:1047C400FCF724F86249FBF719FF2946FCF71EF8A9
:1047D4006049FBF713FF2946FCF718F85E49FBF71D
:1047E4000DFF4146FCF712F85C4980462846FCF769
:1047F4000DF85B49FBF700FF2946FCF707F8594918
:10480400FBF7FAFE2946FCF701F85749FBF7F4FEDB
:104814002946FBF7FBFF5549FBF7EEFE2946FBF75C
:10482400F5FF7B1C014640464CD0FBF7E7FE2146D2
:10483400FBF7ECFF4E4B4F4D53F82710FBF7DCFE14
:104844002146FBF7D9FE014655F82700FBF7D4FEB5
:10485400002E30DBBDE8F0810146FBF7CFFEBDE85A
:10486400F0814549FBF7CAFE4FF07E51FCF78AF907
:1048740000288DD02046BDE8F08100F087F83F4B3A
:1048840004469D4229DCA3F5D0039D4244DC014645
:10489400FBF7B4FE4FF07E51FBF7AEFE4FF08041C4
:1048A40005462046FBF7AAFE01462846FCF762F8B7
:1048B400002704466EE700F10040BDE8F08130486F
:1048C400BDE8F081FBF79AFE2146FBF79FFF014606
:1048D4002046FBF791FEBDE8F0812A4B9D4214DC93
:1048E4004FF07F51FBF788FE4FF07F51054620467D
:1048F400FBF78CFF4FF07E51FBF780FE0146284604
:10490400FCF738F80227044644E701461E48FCF742
:1049140031F8032704463DE74FF07E51FBF76CFE68
:104924004FF07E5105462046FBF768FE01462846B7
:10493400FCF720F8012704462CE700BFDB0FC93F32
:10494400FFFFDF3ED769853C59DA4B3D356B883D27
:104954006E2EBA3D2549123EABAAAA3E21A215BD30
:104964006BF16E3D95879D3D388EE33DCDCC4C3E3D
:10497400E45A0008F45A0008CAF24971FFFF973F4D
:10498400DB0FC9BFFFFF1B40000080BF20F00040C9
:10499400704700BF30F0004001D102207047A0F5FD
:1049A4000003B3F1FE4F01D204207047054B421EB1
:1049B4009A4201D803207047A0F1FF40B0FA80F07A
:1049C40040097047FEFF7F00014B1868704700BF25
:1049D400D800002010B50A44441E914208D014F8AF
:1049E400013F0878834201D0181A10BD0131F4E761
:1049F400002010BD03460244934202D003F8011B79
:104A0400FAE7704770B5A2B1451E01396B7811F809
:104A1400014F6E1CA34206D16FF00104641B1444C1
:104A2400E04202D11C46181B70BD3546002BEDD167
:104A3400F8E7104670BDB8AAB38DB4980D355D4C37
:104A4400CD6C0CC92C365676264666FEF2ABC4AA4B
:104A5400F1DFDFBBAFDFDFB8AAAAAAB088C3C5C73E
:104A6400D8B1B9F38BA391B609B4D9DAB1B9F38B40
:104A7400A391B6DAB4DA4D41494E3A20696E6974AD
:104A8400207375636365737366756C6C790A0030A3
:104A94003132333435363738394142434445465050
:104AA4004C4154464F524D3A207561727420696EE0
:104AB4006974207375636365737366756C6C792EA2
:104AC4000A004E52463A206D79206164647265731F
:104AD40073206973205B253032585D0A004E5246BC
:104AE4003A20696E697420737563636573736675C0
:104AF4006C6C792E0A004E52463A20636F6E6E65D6
:104B04006374696F6E20737563636573730A004E13
:104B140052463A20636F6E6E656374696F6E2066E9
:104B240061696C65640A00493243533A206E6F2010
:104B340061636B0D0A004D50553A2070726F6269C3
:104B44006E6720646576696365732E2E2E0A004DA8
:104B540050553A2066696E642049324353205B25E0
:104B64003032585D0A004D50553A206E6F2064650E
:104B74007669636520626520666F756E6465640A94
:104B8400004D50553A206D707520696E6974203D52
:104B94003E2025640D0A004D50553A2073656E730E
:104BA4006F72207365747570203D3E2025640D0A74
:104BB400004D50553A206D70755F636F6E6669677E
:104BC4007572655F6669666F203D3E2025640D0A37
:104BD400004D50553A206669726D77617265206C9C
:104BE4006F61646564203D3E2025640D0A004D50CC
:104BF400553A20646D705F7365745F6F7269656E9A
:104C0400746174696F6E203D3E2025640D0A004D69
:104C140050553A20646D705F656E61626C655F66C5
:104C2400656174757265203D3E2025640D0A004D52
:104C340050553A20646D705F7365745F6669666F82
:104C44005F72617465203D3E2025640D0A004D505D
:104C5400553A206D70755F7365745F646D705F7332
:104C640074617465203D3E2025640D0A004D505545
:104C74003A206D70755F7365745F73616D706C65F8
:104C84005F72617465203D3E2025640D0A004D501D
:104C9400553A206D70755F7365745F636F6D7061F5
:104CA40073735F73616D706C655F72617465203DD1
:104CB4003E2025640D0A004D50553A20636F6E6EF8
:104CC400656374696F6E20737563636573730A003B
:104CD4004D50553A20636F6E6E656374696F6E2034
:104CE4006661696C65640A008300000000080000C6
:104CF4000001001832000500000020410000D242EB
:104D0400295C0F3E9A99993E3333733F295C0F3ED9
:104D1400494E565F4D50553A20206D70755F73654E
:104D2400745F73656E736F7273203D3E20537563B9
:104D3400636573730D0A00494E565F4D50553A2012
:104D44007061737365640D0A00494E565F4D50558A
:104D54003A20636F6D70617373206E6F7420666F99
:104D6400756E642E0A00494E565F4D50553A206DBB
:104D740070755F696E6974203D3E2075706461745E
:104D84006520646576696365206164647220667277
:104D94006F6D202530325820746F20253032580A28
:104DA40000494E565F4D50553A206D70755F696EDF
:104DB4006974203D3E2052657365742044657669AC
:104DC400636520253032580D0A00494E565F4D5018
:104DD400553A206D70755F696E6974203D3E2057A9
:104DE400616B652075700D0A00494E565F4D505534
:104DF4003A206D70755F696E6974203D3E2077724C
:104E0400697465206669666F0D0A00494E565F4DE8
:104E140050553A2073657475705F636F6D7061737C
:104E240073203D3E2025640D0A0075191A0C6A236F
:104E34001B1C1D1E1F207274433B4138393A696B99
:104E44006C376F77246D6E7025262728292A3463E2
:104E5400646749004144433A20696E69742073755C
:104E6400636365737366756C6C790A000000700087
:104E7400000000240000000200030000006500544C
:104E8400FFEF0000FA80000B12820001030C30C314
:104E94000E8C8CE914D5400213710F8E3883F8837D
:104EA4003000F883258EF8833000F883FFFFFFFF7E
:104EB4000FFEA9D6240004001A8279A10000003C48
:104EC400FFFF00000010000038836FA2003E033093
:104ED4004000000002CAE3093E80000020000000F8
:104EE400000000004000000060000000000C000012
:104EF400000C186E000006920A16C0DFFFFF02566F
:104F0400FD8CD377FFE1C496E0C5BEAA0000000083
:104F1400FFFF0B2B00001657000003594000000050
:104F240000001DFA00026C1D000000003FFFDFEBD3
:104F3400003EB3B6000D227800002F3C00000000B4
:104F4400001942B5000039A20000B365D90E9FC90B
:104F54001DCF4C3430000000500000003BB67AE80E
:104F64000064000000C80000000000001000000001
:104F74001000FA921000225E000D229F0001000032
:104F840000320000FF46000063D40000100000005F
:104F940004D6000004CC000004CC00000000107211
:104FA40000000040000000000000000000060002B5
:104FB400000500070000000000640000000000007D
:104FC400000000050005006400200000000000004F
:104FD4000000000000004000000003000000003258
:104FE400F8980000FF650000830F0000FF9BFC00A1
:104FF40000000000000000000000000000000000AD
:10500400000000000000000000000000000000009C
:10501400000000000000000000001000400000003C
:10502400000000060000B26A000200000001FB83D9
:105034000068000000D9FC007CF1FF830000000040
:1050440000650000006403E80064002800000025F7
:105054000000000016A00000000010000000100076
:10506400002F0000000001F40000100000280000E0
:10507400FFFF4581FFFFFA720000000000000000FE
:10508400004400050005BAC6004778A200000001EC
:105094000000000000000600000000140000254D80
:1050A400002F706D000005AE000C02D0000000005F
:1050B400000000000000000000000000001B0000D1
:1050C4000000000000000000000000000064000078
:1050D40000080000000000000000000000000000C4
:1050E40000000000000000000000000000000000BC
:1050F40000000000000000000000000000000000AC
:10510400000000000000000000000000000000009B
:10511400000000000000000000000000000000008B
:10512400000000000000000000000000001B000060
:105134000000000000000000000E000E00000AC77E
:105144000004000000000032FFFFFF9C00000B2B56
:10515400000000020000000100000064FFE5000000
:10516400000000000000000000000000000000013A
:1051740000000000000100000000000000018000A9
:105184000001800000018000002426D300000000FC
:1051940000000000000600100096003C0000000023
:1051A4000000000000000000000000000C0A4E682F
:1051B400CDCF770950166759C619CE82000000007A
:1051C40000000000000000000000000000000000DB
:1051D4000000000017D78400030000000000000056
:1051E40000000000C7938F9D1E1B1C1900000000C7
:1051F40000000000000000000000000000000000AB
:1052040000000000020318850000400000000003B5
:105214000000000300000000000000004000000047
:10522400000000000000000000000000000000007A
:10523400000000000000000000000000000000006A
:10524400000000000000000000000000000000005A
:10525400677DDF7E72902E554CF6E68800000000D4
:10526400000000000000000000000000D8DCB4B81A
:10527400B0D8B9ABF3F8FAB3B7BB8E9EAEF132F542
:105284001BF1B4B8B08097F1A9DFDFDFAADFDFDF5D
:10529400F2AAC5CDC7A90CC92C97F1A989264666DF
:1052A400B28999A92D557DB0B08AA896365676F163
:1052B400BAA3B4B280C0B8A89711B28398BAA3F0C5
:1052C400240844106418B2B9B49883F1A329557D15
:1052D400BAB5B1A38393F0002850F5B2B6AA83936C
:1052E40028547CF1B9A3829361BAA2DADEDFDB81B0
:1052F4009AB9AEF5606870F1DABAA2DFD9BAA2FA47
:10530400B9A38292DB31BAA2D9BAA2F8DF85A4D0BC
:10531400C1BBAD83C2C5C7B8A2DFDFDFBAA0DFDF80
:10532400DFD8D8F1B8AAB38DB4980D355DB2B6BA4A
:10533400AF8C96198F9FA70E161EB49AB8AA872C05
:10534400547CBAA4B08AB691325676B28494A4C876
:1053540008CDD8B8B4B0F19982A82D557D98A80E7F
:10536400161EA22C547C92A4F02C5078F184A89898
:10537400C4CDFCD80DDBA8FC2DF3D9BAA6F8DABA53
:10538400A6DED8BAB2B68696A6D0F3C841DAA6C8C5
:10539400F8D8B0B4B882A892F52C548898F135D9CD
:1053A400F418D8F1A2D0F8F9A884D9C7DFF8F883A3
:1053B400C5DADF69DF83C1D8F40114F1A8824EA8ED
:1053C40084F311D182F5D992289788F109F41C1C31
:1053D400D884A8F3C0F9D1D99782F129F40DD8F370
:1053E400F9F9D1D982F4C203D8DEDF1AD8F1A2FACE
:1053F400F9A88498D9C7DFF8F8F883C7DADF69DF3A
:10540400F883C3D8F40114F198A8822EA884F31168
:10541400D182F5D992509788F109F41CD884A8F365
:10542400C0F8F9D1D99782F149F40DD8F3F9F9D13B
:10543400D982F4C403D8DEDFD8F1AD8898CCA809AA
:10544400F9D98292A8F57CF1883ACF944A6E98DB18
:105454006931DAADF2DEF9D88795A8F221D1DAA55F
:10546400F9F417D9F1AE8ED0C0C3AE82C684C3A8F6
:105474008595C8A588F2C0F1F4010EF18E9EA8C6E8
:105484003E56F554F18872F40115F19845856EF590
:105494008E9E0488F142985A8E9E068869F4011CF7
:1054A400F1981E1108D0F504F11E970202983625D2
:1054B400DBF9D985A5F3C1DA85A5F3DFD88595A8ED
:1054C400F309DAA5FAD88292A8F578F1881A849FAC
:1054D40026889821DAF41DF3D8879F39D1AFD9DF14
:1054E400DFFBF9F40CF3D8FAD0F8DAF9F9D0DFD904
:1054F400F9D8F40BD8F3879F39D1AFD9DFDFF41D86
:10550400F3D8FAFCA869F9F9AFD0DADEFAD9F88F42
:105514009FA8F1CCF398DB45D9AFDFD0F8D8F18F51
:105524009FA8CAF38809DAAF8FCBF8D8F2AD978D6C
:105534000CD9A5DFF9BAA6F3FAF412F2D8950DD175
:10554400D9BAA6F3FADAA5F2C1BAA6F3DFD8F1BA4A
:10555400B2B68696A6D0CAF349DAA6CBF8D8B0B4C8
:10556400B8D8AD84F2C0DFF18FCBC3A8B2B68696AB
:10557400C8C1CBC3F3B0B48898A821DB718D9D71E9
:10558400859521D9ADF2FAD88597A828D9F408D8F9
:10559400F28D29DAF405D9F285A4C2F2D8A88D9443
:1055A40001D1D9F411F2D88721D8F40AD8F2849819
:1055B400A8C801D1D9F411D8F3A4C8BBAFD0F2DE86
:1055C400F8F8F8F8F8F8F8F8D8F1B8F6B5B9B08AF8
:1055D40095A3DE3CA3D9F8D85CA3D9F8D87CA3D989
:1055E400F8D8F8F9D1A5D9DFDAFAD8B18530F7D9E6
:1055F400DED8F830ADDADED8F2B48C99A32D557D1F
:10560400A083DFDFDFB591A0F629D9FBD8A0FC2960
:10561400D9FAD8A0D051D9F8D8FC51D9F9D879D928
:10562400FBD8A0D0FC79D9FAD8A1F9F9F9F9F9A0F5
:10563400DADFDFDFD8A1F8F8F8F8F8ACDEF8ADDE91
:105644008393AC2C547CF1A8DFDFDFF69D2CDAA029
:10565400DFD9FADB2DF8D8A850DAA0D0DED9D0F8FB
:10566400F8F8DB55F8D8A878DAA0D0DFD9D0FAF862
:10567400F8F8F8DB7DF8D89CA88CF530DB38D9D065
:10568400DEDFA0D0DEDFD8A848DB58D9DFD0DEA02B
:10569400DFD0DED8A868DB70D9DFDFA0DFDFD8F188
:1056A400A888902C547C98A8D05C38D1DAF2AE8CBF
:1056B400DFF9D8B087A8C1C1B188A8C6F9F9DA362C
:1056C400D8A8F9DA36D8A8F9DA36D8A8F9DA36D863
:1056D400A8F9DA36D8F78D9DADF818DAF2AEDFD82E
:1056E400F7ADFA30D9A4DEF9D8F2AEDEFAF983A721
:1056F400D9C3C5C7F1889BA77AADF7DEDFA4F884C8
:105704009408A797F300AEF29819A488C6A39488C6
:10571400F632DFF28393DB09D9F2AADFD8D8AEF8E8
:10572400F9D1DAF3A4DEA7F1889B7AD8F38494AE96
:1057340019F9DAAAF1DFD8A881C0C3C5C7A3928337
:10574400F628ADDED9F8D8A350ADD9F8D8A378ADF2
:10575400D9F8D8F8F9D1A1DADEC3C5C7D8A18194A4
:10576400F818F2B089ACC3C5C7F1D8B8B4B09786FD
:10577400A8319B069907AB9728889BF00C2014400E
:10578400B0B4B8F0A88A9A285078B79BA829517960
:10579400247059446938644831F1BBAB88002C54F7
:1057A4007CF0B38BB8A804285078F1B088B497265D
:1057B400A85998BBABB38B02264666B0B8F08A9C56
:1057C400A82951798B2951798A2470598B205871D1
:1057D4008A4469388B3940688A6448318B3049601F
:1057E40088F1AC002C547CF08CA804285078F18803
:1057F4009726A85998AC8C02264666F0899CA8295D
:105804005179247059446938644831A98809205968
:1058140070AB11384069A8193148608CA83C415CD0
:10582400207C00F187981986A86E767EA999882D28
:10583400557DD8B1B5B9A3DFDFDFAED0DFAAD0DEA6
:10584400F2ABF8F9D9B087C4AAF1DFDFBBAFDFDF71
:10585400B9D8B1F1A3978E60DFB084F2C8F8F9D952
:10586400DED89385F14AB183A308B5839A0810B7AB
:105874009F10D8F1B0BAAEB08AC2B2B68E9EF1FB18
:10588400D9F41DD8F9D90CF1D8F8F8AD61D9AEFB2B
:10589400D8F40CF1D8F8F8AD19D9AEFBDFD8F4166A
:1058A400F1D8F8AD8D61D9F4F4ACF59C9C8DDF2B67
:1058B400BAB6AEFAF8F40BD8F1AED0F8AD51DAAE10
:1058C400FAF8F1D8B9B1B6A3839C08B9B1839AB5F3
:1058D400AAC0FD3083B79F10B58B93F20202D1ABFF
:1058E400DADED8F1B080BAABC0C3B284C1C3D8B1D8
:1058F400B9F38BA391B609B4D9ABDEB0879CB9A335
:10590400DDF1B38B8B8B8B8BB087A3A3A3A3B28B5B
:10591400B69BF2A3A3A3A3A3A3A3A3A3A3F1B087BA
:10592400B59AA3F39BA3A3DCBAACDFB9A3A3A3A347
:10593400A3A3A3A3A3A3A3A3A3A3A3A3D8D8D8BB7C
:10594400B3B7F1AAF9DAFFD9809AAA28B48098A744
:1059540020B79787A86688F07951F1902C870CA717
:1059640081976293F071716085940129517990A5B2
:10597400F1284C6C870C95188578A38390284C6C7F
:10598400886CD8F3A28200F210A8921980A2F2D9EE
:1059940026D8F188A84DD948D896A83980D93CD8BA
:1059A4009580A839A68698D92CDA87A72CD8A889F7
:1059B4009519A980D938D8A88939A980DA3CD8A8FA
:1059C4002EA83990D90CD8A8953198D90CD8A80903
:1059D400D9FFD801DAFFD89539A9DA26FFD890A8DB
:1059E4000D8999A810809821DA2ED88999A8318038
:1059F400DA2ED8A886963180DA2ED8A8873180DAB4
:105A04002ED8A88292F34180F1D92ED8A882F31916
:105A140080F1D92ED882ACF3C0A28022F1A62EA7A1
:105A24002EA92298A829DAACDEFFD8A2F22AF1A97D
:105A34002E8292A8F23180A696F1D900AC8C9C0CEF
:105A440030ACDED0DEFFD88C9CACD010ACDE8092C3
:105A5400A2F24C82A8F1CAF235F19688A6D900D8F0
:105A6400F1FF53424E313A2053656E64204275660D
:105A7400666572202D205B200053424E313A20256A
:105A8400303258200053424E313A205D0D0A005303
:105A9400424E313A2076203D2025642C20616E67E9
:105AA4006C65203D2025662C207061796C6F6164E3
:105AB400203D205B253032582025303258202530B7
:105AC40032582025303258202530325820253032A3
